:100000000AC008C007C006C005C004C003C002C0C3
:1000100090C000C01895112410E0A0E6B0E0E6E41E
:10002000F1E002C005900D92A037B107D9F720E0AA
:10003000A0E7B0E001C01D92A837B207E1F77894BD
:10004000B89AC09ABC98C49ABB98C39A86B390E0F9
:1000500034E0959587953A95E1F780959095817074
:100060009927B39B0296880F991F880F991FFC014F
:10007000E05AFF4F80819181A281B381809370000B
:1000800090937100A0937200B0937300F894A895B8
:1000900084B7877F84BF81B5886181BD81E681BDDA
:1000A000789485B7877E806185BF85B7806285BF7C
:1000B00085B7806285BF889585B78F7D85BF85B7F9
:1000C0008F7D85BF8091740090917500A09176001E
:1000D000B0917700805C904EAF4FBF4F809374001B
:1000E00090937500A0937600B093770040917000D4
:1000F00050917100609172007091730084179507A0
:10010000A607B70770F2C09889EC90E006C0EFE54B
:10011000F9E03197F1F700C000000197C1F7C09AEC
:100120001092740010927500109276001092770071
:10013000B8CF1F920F920FB60F9211240F900FBEDF
:060140000F901F901895BE
:10014600005C2605002E93020097490160EA000034
:00000001FF
